:020000040800F2
:100000008806002005010008511A0008771700082B
:100010004D1A0008BD010008C91E000800000000BC
:10002000000000000000000000000000811A00082D
:10003000C101000800000000551A0008831A0008DA
:100040001F0100081F0100081F0100081F01000810
:100050001F0100081F0100081F0100081F01000800
:100060001F0100081F0100081F0100081F010008F0
:100070001F0100081F0100081F0100081F010008E0
:100080001F0100081F0100081F0100081F010008D0
:100090001F0100081F0100081F0100081F010008C0
:1000A0001F0100081F0100081F0100081F010008B0
:1000B0001F0100081F0100081F0100081F010008A0
:1000C0001F0100081F0100081F0100081F01000890
:1000D0001F010008B91E00081F0100081F010008C9
:1000E0001F0100081F0100081F010008DFF810D0E1
:1000F00000F052F80048004719210008AFF30080D3
:10010000880600200648804706480047FEE7FEE7CD
:10011000FEE7FEE7FEE7FEE7FEE7FEE7FEE7FEE7B7
:10012000F11A0008ED000008202A04DB203A21FA29
:1001300002F00021704721FA02F3D040C2F1200200
:100140009140084319467047D2B201E000F8012BF4
:10015000491EFBD270470022F6E710B513460A4647
:1001600004461946FFF7F0FF204610BD30B50B4698
:10017000014600202022012409E021FA02F59D42D7
:1001800005D303FA02F5491B04FA02F52844151EAB
:10019000A2F10102F1DC30BD064C074D06E0E0683B
:1001A00040F0010394E8070098471034AC42F6D3BE
:1001B000FFF7A0FF8C210008AC21000800BFFEE77C
:1001C000704772B600BFFEE70021074AD1610749B8
:1001D000096941F00401054A11611146096941F0BC
:1001E00040011161704700006800002000200240BB
:1001F0000021074AD1610749096941F00201054A16
:10020000116111464861096941F04001116170476F
:1002100068000020002002400022054BDA61054AF8
:10022000126942F00102034B1A610180704700001D
:10023000680000200020024000201E49C96801F02B
:10024000100139B11C49C96941F002011A4AD16152
:1002500040F010001749C96801F0040139B116498E
:10026000C96941F00101144AD16140F0040011490B
:10027000C96901F0010169B10F49C96941F004017F
:100280000D4AD16100BF0B49C96921F00101094A3A
:10029000D16100BF00BF40F20111884206D105497B
:1002A000C96921F00101034AD16101E00149C86037
:1002B00000BF7047002002406800002070B504466F
:1002C00000F02EFB054609E0601C38B124B100F0B7
:1002D00027FB401BA04201D9032070BD1248C06813
:1002E00000F001000028EFD10F48C06800F02000A6
:1002F00020B100BF20200C49C86000BF0A48C06878
:1003000000F0100048B90848C06900F0010020B9A9
:100310000548C06800F0040018B1FFF78DFF012008
:10032000DBE70020D9E70000002002400146002260
:1003300091F82100022808D00420886300BF002023
:1003400081F8200000BF012070470868006820F095
:100350000E000B6818600868006820F001000B6848
:10036000186091F8403001209840CB6B5860012014
:1003700081F8210000BF002081F8200000BF104656
:10038000E2E7000070B50446002594F82100022839
:1003900003D00420A063012548E02068006820F015
:1003A0000E00216808602068006820F001002168C4
:1003B00008601F492068884201D1012026E01C49BD
:1003C00014312068884201D110201FE018492831DB
:1003D0002068884201D1801518E015493C31206819
:1003E000884201D1801411E01149503120688842BF
:1003F00002D14FF4803009E00D4964312068884211
:1004000002D14FF4801001E04FF0807008490839A4
:100410004860012084F8210000BF002084F82000FB
:1004200000BF606B10B12046616B8847284670BDE5
:100430000800024070B5044600F072FA06462546F0
:10044000681C10B104480078054400BF00F068FA49
:10045000801BA842FAD370BD080000202DE9F041AE
:1004600004460E460127002500BF2648007E0128CD
:1004700002D10220BDE8F08101202249087600BFA8
:100480002068022813D14CF25030FFF717FF90BBC1
:100490000120FFF799FE4CF25030FFF70FFF07469F
:1004A0001948006920F004001749086123E04CF264
:1004B0005030FFF703FFF0B94FF0FF303060A56810
:1004C00012E02846FFF794FE4CF25030FFF7F6FE9C
:1004D00007460D48006920F002000B4908610FB182
:1004E000356007E005F58065D4E9021001EB802056
:1004F000A842E6D800BF00BF00200249087600BF2E
:100500003846B7E768000020002002400348006931
:1005100040F080000149086100207047002002403F
:100520002DE9FE4F05468B461746984601260024C6
:100530000020029000BF2448007E012802D1022042
:10054000BDE8FE8F01202049087600BF4CF25030F4
:10055000FFF7B4FE064686BB012D02D101200290B2
:1005600006E0022D02D10220029001E00420029058
:1005700000241EE02201B946C24648465146FFF714
:10058000D3FD80B20190022000FB04B000900199DD
:10059000FFF742FE4CF25030FFF790FE06460B4844
:1005A000006920F001000949086106B104E0601CFF
:1005B000C4B202988442DDDB00BF00BF00200249C4
:1005C000087600BF3046BBE76800002000200240EC
:1005D00000200849096901F0800151B10649054A26
:1005E0005160064951601146096901F0800101B16D
:1005F000012070470020024023016745AB89EFCD01
:100600002DE9F8470346002294466EE14FF00108B9
:1006100008FA02F4D1F8008008EA0400A0427DD173
:10062000DFF8DCA2D1F80480A8EB0A09D0453AD063
:1006300014DCB8F1030F50D009DCB8F1000F31D051
:10064000B8F1010F1CD0B8F1020F49D120E0B8F188
:10065000110F18D0B8F1120F42D11EE0B9F5881F62
:1006600025D006DCB9F5803F20D0B9F5801F37D101
:100670001AE0B9F5001F18D0B9F5041F30D117E002
:10068000D1F80CC02DE0D1F80C8008F1040C28E062
:10069000D1F80C8008F1080C23E0D1F80C8008F1A7
:1006A0000C0C1EE000BF00BF00BF00BF00BF00BFBA
:1006B000D1F80880B8F1000F02D14FF0040C0BE024
:1006C000D1F80880B8F1010F03D14FF0080C1C617C
:1006D00002E04FF0080C5C6103E04FF0000C00E01A
:1006E00000BF00BFFF2801D8984601E003F10408CD
:1006F0004646FF2802D84FEA820803E0A2F1080824
:100700004FEA88084746D6F800804FF00F0909FAEB
:1007100007F928EA09080CFA07F900E088E048EA36
:100720000908C6F80080D1F8048008F08058B8F1B4
:10073000805F7DD100BFDFF8CC81D8F8188048F009
:100740000108DFF8C091C9F81880C846D8F81880A9
:1007500008F00108CDF8008000BF00BF4FEAB938AB
:100760004FEA920958F829504FEA82784FEA1879EF
:100770004FF00F0808FA09F825EA0805DFF8888124
:10078000434502D14FF0000816E0DFF88081434571
:1007900002D14FF001080FE0DFF87481434502D128
:1007A0004FF0020808E0DFF86C81434502D14FF0BA
:1007B000030801E04FF004084FEA82794FEA197903
:1007C00008FA09F848EA0505DFF84C814FEA920972
:1007D00048F82950D1F8048008F48018B8F5801F33
:1007E0000AD1DFF83881D8F8008048EA0008DFF83D
:1007F0002C91C9F8008009E0DFF82081D8F800804A
:1008000028EA0008DFF81491C9F80080D1F80480C4
:1008100008F40018B8F5001F10D1DFF8008108F1C6
:100820000408D8F8008048EA0008DFF8F09000E0FB
:100830005AE009F10409C9F800800DE0DFF8DC8016
:1008400008F10408D8F8008028EA0008DFF8CC9006
:1008500009F10409C9F80080D1F8048008F40038CF
:10086000B8F5003F0ED1DFF8B480A8F10408D8F83D
:10087000008048EA0008DFF8A490A9F10409C9F84B
:1008800000800DE0DFF89480A8F10408D8F800801B
:1008900028EA0008DFF88490A9F10409C9F800806B
:1008A000D1F8048008F48038B8F5803F0ED1DFF825
:1008B0006C80A8F10808D8F8008048EA0008DFF842
:1008C0005C90A9F10809C9F800800DE0DFF84C80C0
:1008D000A8F10808D8F8008028EA0008DFF83C9062
:1008E000A9F10809C9F80080521CD1F8008028FA43
:1008F00002F8B8F1000F7FF489AEBDE8F887000078
:10090000000011100010024000080140000C0140DE
:10091000001001400014014008000140080401409B
:10092000014800687047000000000020034800688C
:100930000349097808440149086070470000002015
:100940000800002010B50848006840F01000064973
:100950000860032000F0ACF80F2000F007F800F06A
:100960002BF8002010BD00000020024070B50446A6
:100970000E4800784FF47A71B1FBF0F00C49096829
:10098000B1FBF0F5284600F0FDFB08B1012070BD79
:10099000102C07D200222146501E00F04BF80548CB
:1009A000046001E00120F2E70020F0E708000020E9
:1009B0000C0000200400002008B500BF1148806929
:1009C00040F001000F4988610846806900F001008D
:1009D000009000BF00BF00BF0846C06940F08050D3
:1009E000C8610846C06900F08050009000BF00BF99
:1009F00000BF0549486820F0E06040F000704860A2
:100A000000BF08BD0010024000000140014608463A
:100A100000280DDB00BF00BF00F01F0301229A4039
:100A200043099B0003F1E023C3F8002100BF00BF8E
:100A300000BF70472DE9F05F80460D46164600273F
:100A400001F054FA074639462A46334601F00700BA
:100A5000C0F1070ABAF1040F02D94FF0040A01E00D
:100A6000C0F1070AD14600F1040ABAF1070F02D219
:100A70004FF0000A01E0A0F1030AD4464FF0010A4A
:100A80000AFA09FAAAF1010A0AEA020A0AFA0CFAAF
:100A90004FF0010B0BFA0CFBABF1010B0BEA030B54
:100AA0004AEA0B042146404601F028FABDE8F09FCF
:100AB00000BF00F00702064B19684FF6FF0319400C
:100AC000044B0B4343EA0221014B196000BF7047FE
:100AD0000CED00E00000FA0570B504460D460CB9B7
:100AE000012070BD5A48006800F00700A8420ED2ED
:100AF0005748006820F00700284355490860084619
:100B0000006800F00700A84201D00120E9E7207842
:100B100000F0020002281DD1207800F00400042813
:100B200005D14C48406840F4E0604A49486020786C
:100B300000F00800082805D14648406840F460509D
:100B4000444948604348406820F0F000A1680843E9
:100B500040494860207800F0010078B360680128BF
:100B600006D13C48006800F4003090B90120B8E795
:100B70006068022806D13748006800F0007040B96C
:100B80000120AEE73348006800F0020008B90120F8
:100B9000A7E73048406820F00300616808432D490A
:100BA0004860FFF7BDFE064609E0FFF7B9FE801B6F
:100BB00041F28831884202D9032092E707E02548B4
:100BC000406800F00C006168B0EB810FEDD1204867
:100BD000006800F00700A8420ED91D48006820F008
:100BE000070028431A4908600846006800F007001B
:100BF000A84201D0012074E7207800F00400042806
:100C000007D11448406820F4E060E16808431149C6
:100C10004860207800F00800082808D10D48406896
:100C200020F46050216940EAC1000A49486000F0A0
:100C30003FF808494968C1F30311074A515CC840AD
:100C40000649086006480068FFF790FE002048E764
:100C50000020024000100240722100080C00002019
:100C60000400002001480068704700000C000020CC
:100C700000B5FFF7F7FF04494968C1F30221034AB1
:100C8000515CC84000BD00000010024082210008F5
:100C900000B5FFF7E7FF04494968C1F3C221034AE1
:100CA000515CC84000BD00000010024082210008D5
:100CB00070B500210022002400230020134D696834
:100CC00001F00C05F5B1042D02D0082D19D101E079
:100CD0000F4819E00F4DC1F38346AB5D01F4803539
:100CE00055B10A4D6D68C5F340450B4E725D084D18
:100CF0005D43B5FBF2F402E0084D03FB05F420462A
:100D000002E000BF024800BF00BF70BD00100240FB
:100D100000127A00602100087021000800093D00DF
:100D2000F8B504460CB90120F8BD207800F00100A8
:100D3000002878D0F848406800F00C0004280CD057
:100D4000F548406800F00C00082811D1F2484068CE
:100D500000F48030B0F5803F0AD1EF48006800F41D
:100D6000003000285FD0606800285CD10120DBE7FC
:100D700000BF6068B0F5803F06D1E748006840F4E6
:100D80008030E549086028E0606858B9E2480068AA
:100D900020F48030E04908600846006820F4802094
:100DA00008601AE06068B0F5A02F0BD1DA4800683F
:100DB00040F48020D84908600846006840F480303C
:100DC00008600AE0D448006820F48030D249086006
:100DD0000846006820F48020086000BF606888B181
:100DE000FFF79EFD054606E0FFF79AFD401B6428CD
:100DF00001D9032098E7C848006800F400300028B3
:100E0000F2D010E0FFF78CFD054606E0FFF788FD05
:100E1000401B642801D9032086E7BF48006800F41E
:100E200000300028F2D1207800F00200022857D1CB
:100E3000B948406800F00C0050B1B748406800F075
:100E40000C00082818D1B448406800F4803098B9E4
:100E5000B148006800F0020020B12069012801D0EB
:100E6000012061E7AC48006820F0F800616940EAC1
:100E7000C100A949086033E02069E8B10120A74911
:100E80000860FFF74DFD054606E0FFF749FD401BF2
:100E9000022801D9032047E79F48006800F00200BC
:100EA0000028F2D09C48006820F0F800616940EA10
:100EB000C1009949086013E0002098490860FFF7D5
:100EC0002FFD054606E0FFF72BFD401B022801D948
:100ED000032029E79048006800F002000028F2D1C2
:100EE000207800F0080008282DD1A069B8B10120B1
:100EF0008B490860FFF714FD054606E0FFF710FD7B
:100F0000401B022801D903200EE78348406A00F005
:100F100002000028F2D0012000F09EFD13E0002026
:100F20007F490860FFF7FCFC054606E0FFF7F8FC88
:100F3000401B022801D90320F6E67748406A00F0FA
:100F400002000028F2D1207800F00400042873D1B8
:100F500000277148C06900F0805070B900BF6E482A
:100F6000C06940F080506C49C8610846C06900F013
:100F70008050009000BF00BF01276A48006800F45D
:100F80008070B0B96748006840F4807065490860B7
:100F9000FFF7C6FC054606E0FFF7C2FC401B6428CD
:100FA00001D90320C0E65F48006800F48070002883
:100FB000F2D000BFE068012806D15748006A40F02F
:100FC00001005549086227E0E06858B95248006AB4
:100FD00020F00100504908620846006A20F0040031
:100FE000086219E0E06805280BD14B48006A40F020
:100FF0000400494908620846006A40F0010008629E
:101000000AE04548006A20F00100434908620846AA
:10101000006A20F00400086200BFE068A0B1FFF79A
:101020007FFC054609E0FFF77BFC401B41F288315D
:10103000884202D9032077E622E03748006A00F0B0
:1010400002000028EFD012E0FFF76AFC054608E036
:10105000FFF766FC401B41F28831884201D903202A
:1010600062E62D48006A00F002000028F0D1012F4E
:1010700005D12948C06920F080502749C86100BFC8
:10108000E069C8B32448406800F00C00082860D02C
:10109000E069022848D1002020490866FFF740FC9B
:1010A000054606E0FFF73CFC401B022801D903205F
:1010B0003AE61948006800F000700028F2D1206A72
:1010C000B0F5803F07D11448406820F40030A16893
:1010D000084311494860D4E9080108430E494968AA
:1010E00021F4741108430C49486001200B4908663B
:1010F000FFF716FC054607E03DE0FFF711FC401B3B
:10110000022801D903200FE60348006800F00070B0
:101110000028F2D02FE00000001002400000424200
:101120008004424200700040002014490866FFF726
:10113000F7FB054606E0FFF7F3FB401B022801D949
:101140000320F1E50E48006800F000700028F2D19D
:1011500011E0E069012800D1E6E50948466806F497
:101160008031206A814204D106F47011606A8142A4
:1011700001D00120D8E50020D6E500000000424261
:101180000010024070B504462546681EB0F1807F0D
:1011900001D301200FE0681E4FF0E02148610F21CC
:1011A0004FF0FF3000F0AAFE00204FF0E0218861F0
:1011B00007200861002070BDF8B504460E461746AA
:1011C00094F8420020282ED106B10FB90120F8BDB5
:1011D00001202063002060633A463146204600F03B
:1011E000D5FD0546EDB9206B012819D100BF0020BF
:1011F000009020680068009020684068009000BF60
:1012000000BF00BF00BF21680C3151E8001F41F052
:10121000100021680C3141E80002002AF3D100E0FF
:1012200001252846D3E70220D1E7000038B505465E
:101230000C461D492868884210D11C4804801C486F
:1012400000881A490988084419490880FFF7C0F93D
:1012500000F0BAFA00F000FBFFF758F94FF4007104
:101260001448FEF778FF00BF002000901248006885
:1012700000680090104800684068009000BF00BF00
:1012800000BF002000900C480068006800900A48E9
:1012900000684068009000BF00BF4FF4007205492D
:1012A0000548FFF789FF38BD0038014010000020D5
:1012B000120000208800002020000020704700005D
:1012C0002DE9F84F0446206805682068C668206844
:1012D00047694FF00009CA4605F00F09B9F1000F40
:1012E0000AD105F0200038B106F0200020B12046D8
:1012F00000F04FFCBDE8F88FB9F1000F7BD007F08C
:10130000010018B906F49070002874D005F00100AF
:1013100030B106F4807018B1606C40F00100606478
:1013200005F0040030B107F0010018B1606C40F026
:101330000200606405F0020030B107F0010018B14E
:10134000606C40F00400606405F0080048B106F0ED
:10135000200010B907F0010018B1606C40F00800DF
:101360006064606C002845D005F0200028B106F0CC
:10137000200010B1204600F00CFC20684069C0F34A
:10138000801A606C00F0080010B9BAF1000F2CD080
:10139000204600F0B8FB2068406900F0400000B330
:1013A00000BF00BF2168143151E8001F21F0400048
:1013B0002168143141E80002002AF3D100BFE06B3C
:1013C00050B17748E16B4863E06BFEF7DBFF88B113
:1013D000E06B416B88470DE02046FFF76FFF09E0A7
:1013E00009E02046FFF76AFF04E02046FFF766FFAA
:1013F000002060647EE7206B012877D105F01000A3
:10140000002873D006F010000028FAD000BF00209A
:10141000009020680068009020684068009000BF3D
:1014200000BF2068406900F0400000285FD0E06BFA
:10143000006840681FFA80F8B8F1000F55D0A08D01
:10144000404552DDA4F82E80E06B8069202843D00F
:1014500000BF00BF21680C3151E8001F21F48070EB
:1014600021680C3141E80002002AF3D100BF00BF1F
:1014700000BF2168143151E8001F21F001002168EC
:10148000143141E80002002AF3D100BF00BF00BFC1
:101490002168143151E8001F21F040002168143107
:1014A00041E80002002AF3D100BF202084F8420066
:1014B0000020206300BF00BF21680C3151E8001FED
:1014C00021F0100021680C3141E80002002AF3D11C
:1014D00000BFE06BFEF72AFF02206063A08DE28D63
:1014E000801A81B22046FFF7A1FE03E742E0A08DFB
:1014F000E18D401A1FFA80F8E08DD0B3B8F1000FEB
:1015000037D000BF00BF21680C3151E8001F21F423
:10151000907021680C3141E80002002AF3D100BF2D
:1015200000BF00BF2168143151E8001F21F0010005
:101530002168143141E80002002AF3D100BF2020C5
:1015400084F842000020206300BF00BF21680C31F6
:1015500051E8001F21F0100021680C3141E8000221
:10156000002AF3D100BF0220606341462046FFF706
:101570005DFEBFE605F0800030B106F0800018B1D6
:10158000204600F023FCB5E605F0400030B106F03F
:10159000400018B1204600F0ECFAABE600BFA9E627
:1015A000F31A000810B504460CB9012010BDA0695B
:1015B00000B100E000BF94F8410028B9002084F891
:1015C0004000204600F02AF8242084F841002068DA
:1015D000C06820F400502168C860204600F058FB25
:1015E0002068006920F49040216808612068406903
:1015F00020F02A00216848612068C06840F400504B
:101600002168C86000206064202084F8410084F8CC
:1016100042000020606300BFC8E7000010B586B03C
:101620000446002002900390049005901E49206813
:10163000884236D100BF1D48806940F480401B4974
:1016400088610846806900F48040019000BF00BFB7
:1016500000BF0846806940F0040088610846806940
:1016600000F00400019000BF00BF48150290022066
:1016700003900320059002A90D48FEF7C1FF4FF427
:101680008060029000200390049002A90848FEF7B1
:10169000B7FF002205212520FFF7CCF92520FFF711
:1016A000B5F906B010BD000000380140001002403E
:1016B0000008014070472DE9F84F04460E461746D2
:1016C00099464FF0000A94F84100202850D106B105
:1016D00017B90120BDE8F88F00206064212084F84C
:1016E0004100FFF71DF98246A784E784A068B0F5A2
:1016F000805F04D1206910B90025B04602E035466C
:101700004FF000081EE05346002280212046CDF80D
:10171000009000F08BFB20B1202084F841000320D2
:10172000D8E745B9B8F80000C0F308002168486060
:1017300008F1020803E02878216848606D1CE08CFD
:10174000401EE084E08C0028DDD153460022402179
:101750002046CDF8009000F069FB20B1202084F8ED
:1017600041000320B6E7202084F841000020B1E7C3
:101770000220AFE7704700BFFEE7000008B500BFDA
:10178000002000900E480068006800900C48006837
:101790004068009000BF00BF00BF002000900848D4
:1017A000006800680090064800684068009000BF2C
:1017B00000BF4FF4007203490148FFF7FDFC08BD6C
:1017C0002000002088000020F0B585B0002600270A
:1017D00000241DE019482044194909684518287853
:1017E000FF2813D02B4616482146026815A000F0AA
:1017F0006DFB012611482044114909680844104A2C
:101800001288A118C1F30901471A05E0601C84B2CF
:10181000104800888442DDDB00BF66B100200190E3
:10182000012002900397049000200090694601A8CF
:10183000FEF714FE00BF05B0F0BD00000040000838
:101840001400002065726173653A25642C25642CB0
:10185000256300001000002010B527490988274A99
:101860001278881800EBD0714910A0EB4101D1B972
:101870002248007850B100F073F8214801681E48F2
:101880000088401C08441E49086008E000F03EF84B
:101890001B48006818490988084419490860002055
:1018A0001649087027E01548007880B100F058F814
:1018B00011480088401E1349085C134908701048FD
:1018C00000680D49098808440D49086010E000F0DF
:1018D0001DF809480088401E0A49085C0A4908703A
:1018E00005480088401E0649096808440449086004
:1018F00001200249087010BD1000002018000020CF
:1019000014000020880000201900002070B5002479
:1019100018E00F4820440F4909684618601C0E491A
:10192000098888420CDA0D48015D0246601C105C93
:1019300041EA00252A46002331460120FEF7F0FD4A
:10194000A01C84B2044800888442E2DB70BD000021
:101950000040000814000020100000208800002033
:1019600070B500241AE01048204410490968461850
:1019700034B90F48005D0F49097841EA002505E0B8
:10198000601E0B49085C095D40EA01252A460023D8
:1019900031460120FEF7C4FDA01C84B20648008831
:1019A0008442E0DB70BD000000400008140000200D
:1019B00088000020190000201000002008B500BF9A
:1019C0001348806940F01000114988610846806919
:1019D00000F01000009000BF00BF00BF0846806903
:1019E00040F0200088610846806900F020000090E7
:1019F00000BF00BF00BF0846806940F00400886156
:101A00000846806900F00400009000BF00BF08BDD8
:101A10000010024010B50B480B4908604FF4E1304C
:101A20004860002108488160C16001610C2141616A
:101A300000218161C161FFF7B5FD08B1FEF7C1FB6F
:101A400010BD0000003801402000002000BFFEE76C
:101A500000BFFEE77047000008B508490968C908DB
:101A60004FF47A72B1FBF2F14143009100BF00BF25
:101A700000994A1E00920029F9D108BD0C000020EF
:101A8000704710B5FEF752FF10BD00B58FB028218A
:101A900005A8FEF760FB14216846FEF75CFB0120F9
:101AA0000590000406900020079001200990022074
:101AB0000C90C1030D914FF4E0110E9105A8FFF7B2
:101AC0002FF908B1FEF77DFB0F2000900220019056
:101AD000002002904FF480600390002004900221C7
:101AE0006846FEF7F9FF08B1FEF76BFB0FB000BDCB
:101AF000704770B505466C6A0020E085E08420469A
:101B0000FFF7DCFB70BD00BF00BF02680C3252E87B
:101B1000002F22F4907102680C3242E80013002B6F
:101B2000F3D100BF00BF00BF0268143252E8002F9B
:101B300022F001010268143242E80013002BF3D1B5
:101B400000BF016B01290ED100BF00BF02680C323B
:101B500052E8002F22F0100102680C3242E8001314
:101B6000002BF3D100BF202180F842100021016337
:101B7000704710B504462068C06820F04000216816
:101B8000C860202084F841002046FFF7F3FD0020C4
:101B900010BDF8B5044694F84200222875D1A0681B
:101BA000B0F5805F0CD1206950B90025A66A206885
:101BB0004068C0F308003080A06A801CA06215E075
:101BC000A56A0026A068B0F5805F03D0A06828B998
:101BD000206918B920684068287004E020684068CF
:101BE00000F07F002870A06A401CA062E08D401EBB
:101BF00080B2E085002846D12068C06820F020002F
:101C00002168C8602068C06820F480702168C860BE
:101C10002068406920F0010021684861202084F894
:101C2000420000206063206B012826D10020206341
:101C300000BF00BF21680C3151E8001F21F01000E7
:101C400021680C3141E80002002AF3D100BF20686E
:101C5000006800F0100010280AD100BF002000909A
:101C600020680068009020684068009000BF00BFB6
:101C7000A18D2046FFF7DAFA02E02046FFF71AFDB1
:101C80000020F8BD01E00020FBE70220F9E700009A
:101C900070B504462168096921F44051E268114396
:101CA000226811612269A1681143626941EA020553
:101CB0002168C96841F20C62914329432268D160CE
:101CC0002168496921F44071A26911432268516178
:101CD0002D4A2168914202D1FEF7DAFF01E0FEF7BA
:101CE000C7FF00EBC00101EB001162689200B1FB7D
:101CF000F2F100EBC00202EB001263689B00B2FB42
:101D0000F3F26423B2FBF3F202EBC20303EB021221
:101D1000A1EB8201322202EB01116422B1FBF2F14C
:101D200001F0F00100EBC00202EB001263689B00BF
:101D3000B2FBF3F26423B2FBF3F201EB021200EB0D
:101D4000C00101EB001163689B00B1FBF3F100EBF4
:101D5000C00303EB00136668B600B3FBF6F364261A
:101D6000B3FBF6F303EBC30606EB0313A1EB83010E
:101D7000322303EB01116423B1FBF3F101F00F01F6
:101D800011442268916070BD0038014010B50346CF
:101D900099629A85DA8500205864222083F84200EF
:101DA000186928B11868C06840F480701C68E06049
:101DB0001868406940F001001C6860611868C068DC
:101DC00040F020001C68E060002010BD014691F842
:101DD0004100212828D18868B0F5805F0BD10869BF
:101DE00048B90A6A1088C0F308000B685860086A8E
:101DF000801C086205E00B6A581C086218780B68A2
:101E00005860C88C401E80B2C88458B90868C06841
:101E100020F080000B68D8600868C06840F040007F
:101E20000B68D860002070470220FCE72DE9F843DA
:101E300004460D4617469846089E31E0701C70B364
:101E4000FEF76EFDA0EB0800B04200D816B90320E3
:101E5000BDE8F8832068C06800F00400F8B1802D68
:101E60001ED0402D1CD020680068C0F3C000B0B167
:101E700000BF002000902068006800902068406843
:101E8000009000BF00BF2046FFF73DFE08206064C1
:101E900000BF002084F8400000BF0120D8E7FFE722
:101EA000206800682840A84201D1012000E00020FD
:101EB000B842C3D00020CBE710B50248FFF700FAC4
:101EC00010BD00002000002000BFFEE70FB4054B4E
:101ED00010B503A9044A029800F034F810BC5DF86C
:101EE00014FB0000FD2000081C00002002480068D0
:101EF000C0F30220704700000CED00E010B5002890
:101F000004DB0A07130E054A135406E00A07140EF1
:101F1000034A00F00F031B1FD45410BD00E400E07F
:101F200018ED00E002E008C8121F08C1002AFAD12B
:101F300070477047002001E001C1121F002AFBD149
:101F4000704700002DE9FF4F8BB09A460F460546BB
:101F5000002606E025280BD052460D9990476D1CAF
:101F6000761C28780028F5D10FB03046BDE8F08FF8
:101F70000024A0460122604900E0044315F8013F17
:101F8000203B02FA03F00842F7D128782E2817D117
:101F900015F8010F44F004042A280ED06FF02F0228
:101FA0002878A0F1300109290AD808EB880102EB52
:101FB000410100EB01086D1CF2E757F8048B6D1C22
:101FC000287869283ED006DC0028CDD063280BD0C5
:101FD000642804D136E0732810D075284BD05246BF
:101FE0000D999047761C85E017F8040B8DF80000DA
:101FF00000208DF80100E946012003E057F8049B1A
:102000004FF0FF3061074FF0000401D40AE0641C78
:1020100044450DDA8442FADB19F804100029F6D1A0
:1020200006E0641C8442FCDB19F804100029F8D196
:10203000264404E019F8010B52460D999047641E9E
:10204000F8D257E001CF4FF00A0B002802DA4042E5
:102050002D2102E0210504D52B218DF8241001212A
:1020600003E0E10705D02021F7E70DF120090891F1
:102070000CE00021F9E701CF4FF00A0BF9E75946D0
:10208000FEF774F801F1300209F8012D0028F6D1AD
:10209000ADEB090000F1200B600701D44FF00108FF
:1020A000D84502DDA8EB0B0000E0002080460024AC
:1020B00006E009A85246005D0D999047641C761C05
:1020C00008988442F5DB04E0302052460D99904791
:1020D000761CB8F10001A8F10108F5DC05E019F85B
:1020E000010B52460D999047761CBBF10001ABF1F4
:1020F000010BF4DC6D1C34E70928010013B50C4614
:102100004FF6FF73012269460248FFF7D4FA0098A0
:102110001CBD000020000020FEF714FCFFF7B5FCFA
:10212000FFF74CFCFFF776FCFFF728FB08E00548BB
:10213000018805A0FFF7CAFE41F28830FEF77AF960
:10214000F5E7000012000020675F756172745F722E
:1021500065635F66756C6C5F6C656E3A25640A003A
:1021600002030405060708090A0B0C0D0E0F1010D8
:102170000102000000000000000001020304060745
:10218000080900000000010203040000AC2100085F
:102190000000002020000000241F0008CC210008BF
:1021A0002000002068060000341F00080000000026
:1021B000100000000100000000127A000000000082
:0C21C00000000000000000000000000013
:04000005080000ED02
:00000001FF
